:020000040000FA
:100000000C94D3070C94A0440C9475440C944A446B
:100010000C941F440C94F4430C94C9430C949E43D9
:100020000C9473430C9404080C9404080C94040876
:100030000C9404080C9404080C9404080C94040810
:100040000C9404080C9404080C9404080C94040800
:100050000C9404080C9404080C9404080C94294390
:100060000C9404080C94F5440C94CB440C940408B0
:100070000C9404080C9404080C9404080C940408D0
:100080000C9404080C9404080C9404080C940408C0
:100090000C9404080C9404080C9404080C942B454C
:1000A0000C9404080C9404080C9404080C940408A0
:1000B0000C9404080C9404080C9404080C94040890
:1000C0000C9404080C9404080C9404080C94040880
:1000D0000C9404080C9404080C9404080C94040870
:1000E0000C9404080C9499090C94DA1C0C94C62BFB
:1000F0000C9421160C9493090C94C6270C9419188F
:100100000C9497160C94C72B0C944B460C94B20984
:100110000C9477340C94132B0C9420420C941914E7
:100120000C94290B0C9495260C94D4090C94F75339
:100130000C9487350C941A0B0C943D0B0C94D44101
:100140000C94CE090C942C200C94AE090C940D2D1B
:100150000C94D00B0C94E0530C94F6230C94C60929
:100160000C9467270C94B52C0C944B0B0C942229FF
:100170000C940D560C9474090C94CC330C94C55308
:100180000C9412290C94BC090C94BF390C94C7161A
:100190000C946F2D0C9403320C9472320C94830BDC
:1001A0000C9472310C94072B0C94FA530C94D809CC
:1001B0000C94C0090C946B300C949D090C94B716E8
:1001C0000C94E3230C94A1090C94A5090C94D30975
:1001D0000C948E160C94FF340C940D2E0C94E50A9E
:1001E0000C94D52F0C94B8090C94CA090C941A2BB2
:1001F0000C94E9530C94CA2B0C945D2C0C940F3680
:100200000C94E4160C9455390C9496210C94B21D60
:100210000C94EB5A0C941F330C94A8090C94F253D1
:100220000C94D3300C9423180C94ED0A00000000B9
:10023000003E5B4F5B3E3E6B4F6B3E1C3E7C3E1C6C
:10024000183C7E3C181C577D571C1C5E7F5E1C00B2
:10025000183C1800FFE7C3E7FF0018241800FFE769
:10026000DBE7FF30483A060E2629792926407F052C
:100270000507407F05253F5A3CE73C5A7F3E1C1C42
:1002800008081C1C3E7F14227F22145F5F005F5F02
:1002900006097F017F006689956A606060606094EE
:1002A000A2FFA29408047E040810207E20100808F3
:1002B0002A1C08081C2A08081E101010100C1E0CFE
:1002C0001E0C30383E3830060E3E0E060000000090
:1002D0000000005F00000007000700147F147F1477
:1002E000242A7F2A122313086462364956205000BC
:1002F00008070300001C2241000041221C002A1CA8
:100300007F1C2A08083E0808008070300008080892
:100310000808000060600020100804023E514945B2
:100320003E00427F400072494949462141494D33D0
:100330001814127F1027454545393C4A4949314137
:10034000211109073649494936464949291E000005
:10035000140000004034000000081422411414145A
:100360001414004122140802015909063E415D5946
:100370004E7C1211127C7F494949363E414141224F
:100380007F4141413E7F494949417F090909013E79
:10039000414151737F0808087F00417F41002040A0
:1003A000413F017F081422417F404040407F021CB2
:1003B000027F7F0408107F3E4141413E7F090909C9
:1003C000063E4151215E7F09192946264949493295
:1003D00003017F01033F4040403F1F2040201F3F5B
:1003E0004038403F631408146303047804036159E0
:1003F000494D43007F414141020408102000414122
:10040000417F0402010204404040404000030708CD
:100410000020545478407F284444383844444428C9
:10042000384444287F385454541800087E09021870
:10043000A4A49C787F0804047800447D40002040F8
:10044000403D007F1028440000417F40007C04783C
:1004500004787C080404783844444438FC18242484
:100460001818242418FC7C08040408485454542404
:1004700004043F44243C4040207C1C2040201C3C81
:100480004030403C44281028444C9090907C446478
:10049000544C44000836410000007700000041360B
:1004A000080002010204023C2623263C1EA1A16191
:1004B000123A4040207A38545455592155557941C3
:1004C0002254547842215554784020545579400C98
:1004D0001E5272123955555559395454545939557B
:1004E0005454580000457C410002457D42000145BE
:1004F0007C407D1211127DF0282528F07C54554552
:10050000002054547C547C0A097F493249494932BD
:100510003A4444443A324A4848303A4141217A3ACE
:1005200042402078009DA0A07D3D4242423D3D409A
:1005300040403D3C24FF2424487E4943662B2FFC49
:100540002F2BFF0929F620C0887E090320545479F7
:10055000410000447D413048484A32384040227AC8
:10056000007A0A0A727D0D19317D2629292F282645
:100570002929292630484D4020380808080808084D
:100580000808382F10C8ACBA2F102834FA00007BA6
:10059000000008142A142222142A140855005500B9
:1005A00055AA55AA55AAFF55FF55FF000000FF00A8
:1005B000101010FF00141414FF001010FF00FF10A3
:1005C00010F010F0141414FC001414F700FF0000D5
:1005D000FF00FF1414F404FC141417101F10101F54
:1005E000101F1414141F00101010F0000000001F42
:1005F000101010101F10101010F010000000FF104D
:100600001010101010101010FF10000000FF140048
:1006100000FF00FF00001F10170000FC04F414147A
:100620001710171414F404F40000FF00F714141446
:1006300014141414F700F7141414171410101F10C6
:100640001F141414F4141010F010F000001F101FE9
:100650000000001F14000000FC140000F010F01057
:1006600010FF10FF141414FF141010101F000000CE
:1006700000F010FFFFFFFFFFF0F0F0F0F0FFFFFFD2
:100680000000000000FFFF0F0F0F0F0F3844443829
:1006900044FC4A4A4A347E02020606027E027E0278
:1006A00063554941633844443C04407E201E200683
:1006B000027E020299A5E7A5991C2A492A1C4C72C0
:1006C00001724C304A4D4D303048784830BC625A47
:1006D000463D3E494949007E0101017E2A2A2A2AD7
:1006E0002A44445F444440514A444040444A5140B3
:1006F0000000FF0103E080FF000008086B6B083674
:1007000012362436060F090F0600001818000000E4
:100710001010003040FF0101001F01011E00191DD3
:100720001712003C3C3C3C00000000007C3C3E5E5C
:100730002B3D3F2F5B5D3B2C2A225C0011007F96F6
:10074000290001007F9628003A0155C0021010C10F
:100750000141C50400228040360168B00100B102A9
:10076000B011B40102B60302023BB701C63A01550B
:10077000F704A9512C82B701C6E808408A00002975
:1007800019A533C0020D0DC1024300C20100C5040A
:1007900000480048B40100B60302023BE00F0F21FD
:1007A0001C0B0E08499838091103141000E10F0FB3
:1007B0002F2B0C0E06477637071104231E00B001BD
:1007C00000B30402000000B40100D003074218D1B6
:1007D00003000710D2020102D3020102D402010277
:1007E000C005123B000211C103101088C50103C6E9
:1007F0000102C80C003236450616377577540C00D6
:10080000CC0100F603010100CF03008130ED046448
:10081000031281E803851078CB05392C003402F7E8
:100820000120EA020000B00100B102001BB4010087
:10083000C00121C10111C5023F3CC701B5360148C5
:10084000F20100260101E00F0F26240B0E0954A827
:10085000460C17090F0700E10F00191B0410072AA7
:10086000473903060630380F360100B80101C001D0
:100870000EB00100C10410100202C00600350000D5
:100880000102C50104D2020104CA0100EA0180B9D3
:1008900003FF83577F967F96B60125C0065050010F
:1008A0003C1E08B4070240002A2A0D787F01F20B93
:1008B0001616030808080810041616FD0311023561
:1008C000B2050C0C003333B70135BB012BC001045A
:1008D000C20201FFC30111C40120C6010FD002A44E
:1008E000A1E00ED000050E150D374347091512166D
:1008F00019E10ED000050D0C062D44400E1C1816F3
:10090000193A01557F0A06000700B1020012B4012E
:1009100002B60400202700CA0101CB0103C0011365
:100920007F14C501CCC60100C70104C80103CC0176
:1009300006CD011CF9021515F3030A020AF603019C
:100940001000FA00FB00E2031E0254E001017F0ADE
:10095000E001037F0A01007F64E60303FFFFB007A5
:100960002400031F01DF00B40803A0002E30000F95
:1009700000B607020D0010100008BA010FB80207F8
:1009800001F001007F01280011007F642900BE06EC
:1009900006F001F00000D0010DB00103E2013FC0FC
:1009A0000122E20100B00100C0010AB00100000014
:1009B0000000000000000000000000000000FFFF39
:1009C0000F0000040062080008080003000C010387
:1009D0000B5A02030609030317100403002305033F
:1009E0000017060309630703090C08030C10090329
:1009F0003222100016001100010112000000130045
:100A0000010000013003010137020301000D8002E3
:100A100000610201B0C1FFFF3200010000010200CD
:100A2000000103003010090001000C0000009000DC
:100A300000800F000000100200001102EF001202FF
:100A4000000013028F0100050000010500000205EF
:100A50005F000104010004040000FFFF32000700F2
:100A60000001FFFF32000002000001020000000050
:100A70000000000000000000000000000100A400D1
:100A80000100FFFF0A00600000270800080830008E
:100A9000140231001537320004063300160E3400FC
:100AA000112235000015360007853700071438007D
:100AB00003143900200090001500100010041100EC
:100AC0003702290046002A004600070000001200F5
:100AD000890113000011FFFF96001200B901010007
:100AE00000010200000203003010090001000A00AA
:100AF00000000D0000000E003000610001006A00DF
:100B00000000800000008100000082005F00920071
:100B1000000193000107FFFF500007000001E500FE
:100B2000F078010000010200000203003010040010
:100B300000000500000008000702090000000A008C
:100B400000000C0000000D0000000F00000010006D
:100B50000000110007001200000013000000070051
:100B60000100FFFFC8001000901611002702FFFFD0
:100B7000320012000D00FFFF3200130000122900A6
:100B80000A002B000D00FFFF3200200000002100B2
:100B90000000300000003100040432000300350082
:100BA000050436000808370007043800030339003D
:100BB00007073C0004053D000808600000276100AD
:100BC00001006A0000008000000081000000820037
:100BD00000008300000084000000850000009000F9
:100BE00010009200000007003301E50000800000C3
:100BF00001000100000102000007030030100400A2
:100C0000000008000202090000000A0000000C00B9
:100C100000000D0000000F00000010000000110097
:100C200007001200000013000000FFFF3200100058
:100C3000B01711000700FFFF0A0012003A01FFFF82
:100C40000A001300001A29000C00FFFF0A00300000
:100C500000003100050532000400350006003600B2
:100C600007073700050138000200390007073C007C
:100C700004073D000708600000A7610001006A004A
:100C80000000210000002000000080000000810022
:100C90000000820000008300000084000000850046
:100CA00000009000100092000000930003009500E7
:100CB0001001970000009800000007007301FFFF7B
:100CC000320001000001020000070300301008009C
:100CD0000203090000000A000800100000001100D3
:100CE00005001200000013000000FFFF6400100068
:100CF000B012FFFF320011000700FFFF32001200A8
:100D00008C001300001729002000FFFF3200300084
:100D100000003100060132000101350006013600F5
:100D200003023700000038000707390004023C00C6
:100D300006013D000301600000A761000100900072
:100D4000300007003301FFFF3200150030009A0029
:100D500010001100200010002834120002001300BF
:100D60003810FFFF280012001200FFFF28001000BB
:100D7000203413004530FFFF4600300000003100F2
:100D8000020432000703330004033400040035007A
:100D90000104360007073700050338001006390044
:100DA00010060100000102000003030030100800DB
:100DB00008080A0008006000002761000100900098
:100DC0003E019200000193000001A0000030A3004A
:100DD00010000700010007002100070023000700A2
:100DE00033000700330111001A00120021311300F3
:100DF0006C001400494210000008FFFF0A001100B7
:100E00001A01FFFF0A0011001A03FFFF0A00110078
:100E10001A07FFFF0A0011001A0FFFFF0A00110056
:100E20003A0FFFFF1E00010028010200000103002D
:100E3000301007001210080003030B0000110C0013
:100E400000000F00011815002000500001015100A2
:100E50000306520008045300000054000506550024
:100E600006045600030357000303580010005900FE
:100E7000001007001200FFFF280007001300070002
:100E8000170000002100240027002A002D00300058
:100E9000330001010000040107010A0100002200E3
:100EA000250028002B002E00310034000201000034
:100EB000050108010B010000200023002600290085
:100EC0002C002F003200000100000301060109017F
:100ED00005050505070508080808020202020A0AB6
:100EE00008080404040401010101010101010303D4
:100EF000030303030303040707070C0C0C0C0C0C7F
:100F00000C0C0202020206060606060606060B0B7B
:100F10000B0B0B0B0B0B01021020200808102040BC
:100F200010204080020102010804020101020408AD
:100F3000102040808040201008040201800402013B
:100F40008040201008040201080402010102040884
:100F500010204080010204081020408000000A0B8D
:100F600002090C0D0E080703040100000000000038
:100F70000000000000000000000000000000000071
:100F8000000000000000000012111000000000002E
:100F90000000000000000000000000000000000051
:100FA00000004B46EB5A11241FBECFEFD1E2DEBF4B
:100FB000CDBF00E00CBF28E0A8ECB4E001C01D925A
:100FC000A83FB207E1F714E0A0E0B2E0E2EAF6ECF5
:100FD00000E00BBF02C007900D92A83CB107D9F703
:100FE00017E0C2EDD7E000E006C021970109802F8D
:100FF000FE010E94105EC13DD10780E00807A9F7FD
:101000000E94FE460C943F630C9400002F923F9286
:101010004F925F926F927F928F929F92AF92BF9208
:10102000CF92DF92EF92FF920F931F93CF93DF93B4
:10103000CDB7DEB76D970FB6F894DEBF0FBECDBF4C
:101040007A8769875C874B873E872D87188B0F8748
:10105000FB0111821082FA0111821082F8011182C3
:101060001082F901118210822090D8083090D9089E
:101070002091D6082C83F090D3082F2D30E0388FA4
:101080002F8B46E0F49E900111243E832D83A09087
:10109000C708B090C808E090D408E8E0EE9E600170
:1010A000112491012C5F3F4F3A8B298B2E5F3F4FCC
:1010B0003C8B2B8B245031093A8F298F2A5F3F4F6D
:1010C0003B832A8398878F8344244A94542CAFEF20
:1010D000BFEF8FEF9FE79C8F8B8F0FEF1FE770E0C5
:1010E00060E050E040E0EF81F8858191F887EF8380
:1010F000882309F4C0C02114310409F487C08A3060
:1011000041F4EA81FB8184918E9D600D711D112453
:10111000E8CF8D3041F3E989FA899491EB89FC8914
:101120002491891700F32817F0F2E98DFA8D2591A3
:101130003491891BF7E08F9F200D311D1124F90197
:10114000329684918983319694919D8B31968491C6
:101150008E8B319684912A5F3F4FF901F491FD8F78
:101160002C812223F1F03981632E712C680E711CC1
:1011700087FD7A942F89388D629E4001639E900C82
:10118000729E900C1124840E951EA814B9044CF480
:10119000EA81FB8194919E9D600D711D112450E0A8
:1011A00040E02F2D382F3203C0011124840F951FEA
:1011B0002E2D3D8D3203F00111249F01260F371F84
:1011C000801791070CF48C01EB8DFC8D2E173F07D7
:1011D00014F43C8F2B8FF981FF9D800D911D1124FC
:1011E0000197A817B9070CF4DC018D898E9D200D9D
:1011F000311D112421503109421653060CF42901E6
:101200009E899F9D400D511D11246DCF8A3019F488
:101210006C0D7D1D66CF8D3009F465CF2C812223A6
:1012200059F08D819E81840F951FA816B90624F46C
:101230006C0D7D1D50E040E02D813E81240F351F57
:10124000C9010197A817B9070CF4DC01C601860F84
:10125000971F0197481659060CF42C0140175107A7
:101260000CF48A018B8D9C8D6817790714F47C8FA0
:101270006B8FA90138CFA017B1075CF0E985FA851B
:1012800011830083A01BB10B1196ED85FE85B18300
:10129000A0832B8D3C8D421653066CF0EB85FC85AC
:1012A00031832083421A530AFFEF4F1A5F0AEF85FA
:1012B000F889518240826D960FB6F894DEBF0FBE5A
:1012C000CDBFDF91CF911F910F91FF90EF90DF90F5
:1012D000CF90BF90AF909F908F907F906F905F90D6
:1012E0004F903F902F90089508958150823108F0DB
:1012F0005AC0E82FF0E08827EF57F64F8F4F0C9435
:10130000105EA109A509930999099D09D309A809A6
:10131000AE09B209B809BC09C009C609CA09D3098E
:10132000CE09D409D809809180008F7780938000FE
:101330000895809180008F7DF9CF80918000877F14
:10134000F5CF84B58F7784BD089584B58F7DFBCFAD
:101350008091B0008F778093B00008958091B000A5
:101360008F7DF9CF809190008F77809390000895C2
:10137000809190008F7DF9CF80919000877FF5CF8D
:101380008091A0008F778093A00008958091A000A5
:101390008F7DF9CF8091A000877FF5CF80912001CC
:1013A0008F77809320010895809120018F7DF9CF60
:1013B00080912001877FF5CFCF93DF93282F30E0F6
:1013C000F901E45AF04F8491F901EA5EF04FD491AB
:1013D000F901E053F14FC491CC23A1F081110E9497
:1013E0007509EC2FF0E0EE0FFF1FEA54F14FA591C5
:1013F000B491EC91ED2381E090E009F480E0DF917D
:10140000CF91089580E090E0FACF1F93CF93DF93C0
:10141000282F30E0F901E45AF04F8491F901EA5E97
:10142000F04FD491F901E053F14FC491CC23A9F0CE
:10143000162F81110E947509EC2FF0E0EE0FFF1FAF
:10144000E456F14FA591B4918FB7F894EC91111136
:1014500008C0D095DE23DC938FBFDF91CF911F9121
:101460000895DE2BF8CFCF93DF9390E0FC01EA5E86
:10147000F04F24918053914FFC0184918823C9F04F
:1014800090E0880F991FFC01EE57F14FA591B491A0
:10149000FC01E456F14FC591D49161110DC09FB785
:1014A000F8948C91209582238C938881282328831B
:1014B0009FBFDF91CF910895623051F49FB7F894A8
:1014C0003C91822F809583238C93E8812E2BEFCF44
:1014D0008FB7F894EC912E2B2C938FBFEACF3FB7A8
:1014E000F8948091780590917905A0917A05B09152
:1014F0007B0526B5A89B05C02F3F19F00196A11DBD
:10150000B11D3FBFBA2FA92F982F8827BC01CD014D
:10151000620F711D811D911D42E0660F771F881FAC
:10152000991F4A95D1F708958F929F92AF92BF92DB
:10153000CF92DF92EF92FF926B017C010E946F0AC3
:101540004B015C01C114D104E104F104B9F00E9423
:101550006F0A681979098A099B09683E73408105F9
:10156000910580F321E0C21AD108E108F10888EE64
:10157000880E83E0981EA11CB11CE4CFFF90EF9071
:10158000DF90CF90BF90AF909F908F9008952FB72E
:10159000F89460917405709175058091760590912D
:1015A00077052FBF0895FC012481358162177307E9
:1015B00020F480819181009729F41092420582E401
:1015C00095E00895860F971F08950895DC01ED9129
:1015D000FC910190F081E02D1994AF92BF92CF92CF
:1015E000DF92EF92FF920F931F93CF93DF936C01E3
:1015F0007B018B01040F151FEB015E01AE18BF08C4
:10160000C017D10759F06991D601ED91FC91019075
:10161000F081E02DC6011995892B79F7C501DF917D
:10162000CF911F910F91FF90EF90DF90CF90BF90DF
:10163000AF900895FC01538D448D252F30E0842F09
:1016400090E0821B930B541710F0CF9608950197EA
:101650000895FC01918D828D981761F0A28DAE0FD7
:10166000BF2FB11D5D968C91928D9F5F9F73928F5E
:1016700090E008958FEF9FEF0895FC01918D828D8A
:10168000981731F0828DE80FF11D858D90E0089557
:101690008FEF9FEF0895FC01918D228D892F90E0AF
:1016A000805C9F4F821B91098F73992708958FE764
:1016B00097E00E944B0B21E0892B09F420E0822F58
:1016C0000895FC01A48DA80FB92FB11DA35ABF4FD7
:1016D0002C91848D90E001968F739927848FA68931
:1016E000B7892C93A089B1898C91837080648C9385
:1016F000938D848D981306C00288F389E02D808134
:101700008F7D80830895EF92FF920F931F93CF9365
:10171000DF93EC0181E0888F9B8D8C8D98131AC02C
:10172000E889F989808185FF15C09FB7F894EE8913
:10173000FF896083E889F989808183708064808370
:101740009FBF81E090E0DF91CF911F910F91FF90BB
:10175000EF900895F62E0B8D10E00F5F1F4F0F7363
:101760001127E02E8C8D8E110CC00FB607FCFACF1E
:10177000E889F989808185FFF5CFCE010E94610B50
:10178000F1CFEB8DEC0FFD2FF11DE35AFF4FF082EF
:101790009FB7F8940B8FEA89FB8980818062CFCF55
:1017A000CF93DF93EC01888D8823B9F0AA89BB8998
:1017B000E889F9898C9185FD03C0808186FD0DC083
:1017C0000FB607FCF7CF8C9185FFF2CF808185FFA4
:1017D000EDCFCE010E94610BE9CFDF91CF9108954B
:1017E00080E090E0892B29F00E94570B81110E9424
:1017F000000080E090E0892B49F080E090E0892BA8
:1018000029F00E94000081110E94000080E090E019
:10181000892B49F080E090E0892B29F00E9400009C
:1018200081110E94000080E090E0892B49F080E067
:1018300090E0892B29F00E94000081110C94000097
:10184000089561E0FC0184810C94050AF89498E005
:101850002F9887FF0CC02D9A880F2F9A9150C1F7AF
:1018600000000000000000002F98789408952D9843
:10187000F3CFF8942D9A98E080E02F9A00000000B2
:10188000880F1E9981602F989150B9F77894089528
:101890000F931F93CF93DF93EC010E94C70A8B0134
:1018A0000E94390C8F3F69F00E94C70A601B710BC0
:1018B0006C177D07A8F380E0DF91CF911F910F9106
:1018C000089581E0F9CF0F931F93CF93DF93EC013D
:1018D0000E94C70A8B010E94390C8A878F3F91F4BE
:1018E0000E94C70A601B710B6D327140A0F38FE03C
:1018F0008D83CE010E94210C80E0DF91CF911F915A
:101900000F9108958E3F11F08DE0F2CF81E0F5CF79
:101910008F929F92AF92BF92FF920F931F93CF939C
:10192000DF93EC01F62E49015A018E81882389F05C
:101930008F8198859C012F5F3F4F38872F8382309E
:10194000924018F40E94390CF3CFCE010E94210C72
:101950001E8260E08C810E94050A8CE291E00E9468
:10196000480C8F2D80640E94260C08E110E0D50100
:10197000C401002E04C0B695A795979587950A9443
:10198000D2F70E94260C08501109083F8FEF180764
:1019900071F785E9FF2021F028E087E8F2128FEF48
:1019A0000E94260C10E00E94390C8A8787FF04C031
:1019B0001F3F11F01F5FF7CFDF91CF911F910F9164
:1019C000FF90BF90AF909F908F9008958F929F92BD
:1019D000AF92BF92EF92FF920F931F93CF93DF933B
:1019E000EC011B8619861E821D828AE08C830E9470
:1019F000C70A7B0161E08C810E94330A61E08C811F
:101A00000E94050A60E08CE00E94330A61E08BE0EE
:101A10000E94330A61E08DE00E94330A1AE08FEFE2
:101A20000E94260C1150D9F760E08C810E94050AB3
:101A300020E030E0A90160E0CE010E94880C182F60
:101A40008A878130C9F00E94C70A6E197F09613DFB
:101A5000774070F381E08D83CE010E94210C10E06D
:101A6000812FDF91CF911F910F91FF90EF90BF9049
:101A7000AF909F908F9008952AEA31E040E050E0C7
:101A800068E0CE010E94880C82FF25C01B878B85F1
:101A9000812C912C5401823029F4812C912CA12C81
:101AA00080E4B82E20E030E0A90167E3CE010E9477
:101AB000880CA501940169E2CE010E94880C8A87F6
:101AC0008823B1F00E94C70A6E197F09613D7740F3
:101AD00048F388E0C0CF04E00E94390C8A870150A7
:101AE000D9F78A3A11F082E0B6CF82E08B87CFCF68
:101AF0008B858230C1F420E030E0A9016AE3CE0199
:101B00000E94880C882311F086E0A5CF0E94390C32
:101B1000807C803C11F483E08B870E94390C0E940A
:101B2000390C0E94390CCE010E94210C99CFCF9222
:101B3000DF92EF92FF920F931F93CF93DF93EC010D
:101B40006901C801820F931F8130924048F58E8150
:101B5000882371F088819981AA81BB8184179507B8
:101B6000A607B70729F48F819885C816D90670F59E
:101B7000488359836A837B838B85833039F089E07E
:101B8000440F551F661F771F8A95D1F79A01AB0145
:101B900061E1CE010E94880C882379F083E08D8377
:101BA000CE010E94210C80E0DF91CF911F910F9117
:101BB000FF90EF90DF90CF900895CE010E94630CCC
:101BC000882371F318861F8281E08E838F81988528
:101BD0008C159D0540F40E94390C8F8198850196E3
:101BE00098878F83F3CF6701E00EF11E0E94390CB6
:101BF000F60181936F01EE16FF06C1F78F8198857C
:101C0000080F191F18870F838985882319F001157C
:101C10001240A0F08E81882389F08F8198859C01E5
:101C20002F5F3F4F38872F838230924018F40E94F5
:101C3000390CF3CFCE010E94210C1E8281E0B4CF7B
:101C4000CF92DF92EF92FF920F93CF93DF93EC014D
:101C5000690182E1411551056105710599F08B8596
:101C6000833039F089E0440F551F661F771F8A952E
:101C7000D1F79A01AB0168E1CE010E94880C88235C
:101C800019F084E08D832DC08EEF0E94260C760122
:101C90008EEFD81AF70181917F010E94260CEC1477
:101CA000FD04C1F78FEF0E94260C8FEF0E94260CD7
:101CB0000E94390C8A878F71853071F4011116C02A
:101CC000CE010E94210C81E0DF91CF910F91FF9016
:101CD000EF90DF90CF90089581E18D83CE010E9437
:101CE000210CCE010E94210C80E0EECF88E592E02D
:101CF0000E94480C811102C085E1C4CF20E030E091
:101D0000A9016DE0CE010E94880C882311F084E1C6
:101D1000B9CF0E94390C8111FACFD2CF0F934091E5
:101D20003E0550913F056091400570914105411578
:101D300051056105710599F0082F2FE735E0809175
:101D40007C0590917D050E94200E882349F0109219
:101D50003E0510923F05109240051092410581E02A
:101D60000F9108950F93CF93C82F80913D05811156
:101D700005C0C1E08C2FCF910F91089540910002D2
:101D80005091010260910202709103020C2F2FE723
:101D900035E080917C0590917D050E94200E811197
:101DA00002C0C0E0E7CFCC2321F381E00E948E0E79
:101DB0008823B9F310923D05DDCF8F929F92AF92A9
:101DC000BF92EF92FF920F931F93CF934B015C0151
:101DD000C42F8091000290910102A0910202B09163
:101DE000030288159905AA05BB0551F181E00E94FF
:101DF000B20E81110BC080E0CF911F910F91FF9027
:101E0000EF90BF90AF909F908F9008958FE7E82E4E
:101E100085E0F82E00E012E030E020E0B501A401FA
:101E200080917C0590917D050E94970D882319F380
:101E30008092000290920102A0920202B0920302EC
:101E400040913D054C2B40933D0581E0D5CFCF938C
:101E5000DF93EC016E857F858889998941E00E9436
:101E6000DD0E882351F08A8920E2829FC00111246F
:101E700081589A4FDF91CF91089590E080E0FACF9A
:101E80008F929F92AF92BF92CF92DF92EF92FF928A
:101E9000CF932CE138E030937D0520937C05882397
:101EA00009F46DC040E060E070E0CB010E94DD0EFF
:101EB00081110BC080E0CF91FF90EF90DF90CF9029
:101EC000BF90AF909F908F90089580913D078F773E
:101ED00089F78091490790914A07A0914B07B091EB
:101EE0004C0784369105A105B10520F3C090450744
:101EF000D0904607E0904707F0904807C114D104FE
:101F0000E104F104B9F240E0C701B6010E94DD0E20
:101F1000882381F280918A0590918B0581159240EA
:101F200049F6A0918F05AA2329F260918D05709141
:101F30008E056115710509F4BDCF20918C05222312
:101F400009F4B8CFA0933A0820932C0890E080E0E1
:101F500030E0E1E0F0E0C82FAF01082E02C0440FEE
:101F6000551F0A94E2F72417350769F041E0480F3E
:101F700001968930910579F7409335089BCFC12CA4
:101F8000D12C7601C0CF80933508209195053091F2
:101F9000960550E040E02115310541F42091A3055C
:101FA0003091A4054091A5055091A60520932D08D8
:101FB00030932E0840932F08509330084601570164
:101FC000860E971EA11CB11C80923B0890923C0883
:101FD000A0923D08B0923E08E0919005F0919105E5
:101FE000F0934108E0934008B0E00E94755CDC018A
:101FF000CB01880D991DAA1DBB1D809342089093AB
:102000004308A0934408B093450825E0EE0FFF1F56
:102010002A95E1F7E150FE4FEF2FFF27E6958E0F4F
:102020009F1FA11DB11D8093360890933708A09380
:102030003808B09339088090920590909305B12CA0
:10204000A12C8114910441F480909F059090A005EB
:10205000A090A105B090A205C81AD90AEA0AFB0A05
:10206000C80CD91CEA1CFB1C04C0F694E794D79456
:10207000C794CA95D2F7C0923108D0923208E09244
:102080003308F092340885EFC8168FE0D806E104D3
:10209000F10428F48CE080933F0881E00CCF80E1CC
:1020A00025EFC2162FEFD206E104F104A0F38091D0
:1020B000AB059091AC05A091AD05B091AE058093B4
:1020C000420890934308A0934408B093450880E2E7
:1020D000E2CF4F925F926F927F928F929F92AF92D8
:1020E000BF92CF92DF92EF92FF920F931F93CF9305
:1020F000DF93EC01423051056105710590F480E0F9
:10210000DF91CF911F910F91FF90EF90DF90CF90D3
:10211000BF90AF909F908F907F906F905F904F9007
:10212000089589859A85AB85BC850196A11DB11D51
:1021300084179507A607B70710F3CB88DC88ED88CE
:10214000FE888F89803109F042C0BB27A72F962FC8
:10215000852F480159012A013B01C80ED91EEA1EEC
:10216000FB1E8091000290910102A0910202B091A9
:102170000302C816D906EA06FB0699F58F89803155
:10218000C1F5B301A201552766277727440F551FD4
:1021900041585A4FFA019182808280913D058160B9
:1021A00080933D058A89823080F08D819E81AF8148
:1021B000B8858C0D9D1DAE1DBF1D80933E0590936F
:1021C0003F05A0934005B093410581E099CFDB0125
:1021D000CA01E7E0B695A79597958795EA95D1F757
:1021E000B8CF40E0C701B6010E94DD0E8111C6CF15
:1021F00086CFB301A2014F77552766277727440F73
:10220000551F440F551F41585A4FFA018082918241
:10221000A282B382C2CF8F929F92AF92BF92CF928F
:10222000DF92EF92FF920F931F93CF93DF93FC0106
:1022300081859285A385B4850196A11DB11D841762
:102240009507A607B70770F480E0DF91CF911F9143
:102250000F91FF90EF90DF90CF90BF90AF909F9045
:102260008F90089583889488A588B688878980315F
:1022700089F5BB27A72F962F852FE9016A017B01DE
:102280008F01BC01CD01680D791D8A1D9B1D8090B9
:10229000000290900102A0900202B0900302861604
:1022A0009706A806B90601F5F8018789803111F56E
:1022B000DD24EE24FF24F601EE0FFF1FE158FA4F54
:1022C00080819181B0E0A0E088839983AA83BB8359
:1022D00081E0BBCFDB01CA01C7E0B695A795979512
:1022E0008795CA95D1F7C9CF40E00E94DD0E8111D4
:1022F000DBCFAACFE894C7F8DD24EE24FF24F60153
:10230000EE0FFF1FEE0FFF1FE158FA4F8081918102
:10231000A281B381BF70D8CF4F925F926F927F92AC
:10232000AF92BF92CF92DF92EF92FF920F931F93E3
:10233000CF93DF9300D01F92CDB7DEB78C014983D6
:102340005A836B837C835901C12CD12C7601412C9B
:1023500082E0582E612C712C49815A816B817C81DD
:102360009E012F5F3F4FC8010E940B11882339F156
:10237000F8018585A301920104C0220F331F441F79
:10238000551F8A95D2F7DA01C901C80ED91EEA1E77
:10239000FB1E49815A816B817C818789803111F1D3
:1023A00088EF9FEFAFEFBFE0481759076A077B0739
:1023B00098F2F501C082D182E282F38281E00F902F
:1023C0000F900F900F90DF91CF911F910F91FF9081
:1023D000EF90DF90CF90BF90AF907F906F905F9025
:1023E0004F90089588EF9FEFA0E0B0E0DDCFCF934E
:1023F000DF93FC012581222321F080E0DF91CF9142
:102400000895EC0180913F08803159F582E0858381
:10241000178A108E118E128E80914008909141087B
:10242000B0E0A0E025E0880F991FAA1FBB1F2A95E6
:10243000D1F7838B948BA58BB68B88E298E09C8F29
:102440008B8F81E08C831E821F82188619861A86E4
:102450001B861C861D861E861F86188A198A1A8A64
:10246000CDCF803251F683E0858340914208509170
:1024700043086091440870914508478B508F618FE5
:10248000728F9F012D5E3F4F88E298E00E948C1171
:102490008111D3CFB2CF8F929F92AF92BF92CF9242
:1024A000DF92EF92FF920F931F93CF93DF93EC0194
:1024B0008D8181110EC080E0DF91CF911F910F912E
:1024C000FF90EF90DF90CF90BF90AF909F908F9054
:1024D00008950B891C892D893E8904171507260745
:1024E000370748F34A015B01823031F48A869B86C4
:1024F000AC86BD8681E0E0CF81149104A104B104D3
:1025000049F41E821F82188619861A861B861C862D
:102510001D86F0CF0A851B852C853D85EB8DFC8DB6
:10252000858590E00996B901A801415051096109DA
:102530007109082E04C076956795579547950A94BA
:10254000D2F775016401E1E0CE1AD108E108F10883
:1025500004C0F694E794D794C7948A95D2F7C4162A
:10256000D506E606F70620F0012B022B032B11F50A
:102570008F89988DA98DBA8D8E839F83A887B987FF
:102580008E010A5F1F4FC114D104E104F10409F464
:10259000ADCF4E815F816885798598018B8D9C8D4B
:1025A0000E940B1191E0C91AD108E108F1088111CC
:1025B000EACF81CFC41AD50AE60AF70AE1CF3F92E3
:1025C0004F925F926F927F928F929F92AF92BF9243
:1025D000CF92DF92EF92FF920F931F93CF93DF93EF
:1025E000CDB7DEB72C970FB6F894DEBF0FBECDBFC8
:1025F0005C01DC015B968D909C905C9716964D90EB
:102600005D906D907C9019974114510461047104A0
:1026100009F468C0BFEF4B1A5B0A6B0A7B0A312CC6
:10262000F40181859285A385B4859C01AD012F5F5E
:102630003F4F4F4F5F4F29873A874B875C87730126
:1026400062011D821E821F821886F4018185928597
:10265000A385B4852D813E814F8158852817390780
:102660004A075B0708F056C089859A85AB85BC850B
:102670008C159D05AE05BF0550F482E0C82ED12C07
:10268000E12CF12C92E0492E512C612C712C9E01F1
:102690002F5F3F4FB701A601C4010E940B11882391
:1026A000C9F189819A81AB81BC81892B8A2B8B2BC3
:1026B00009F1260137019FEF491A590A690A790A77
:1026C0002D813E814F8158852F5F3F4F4F4F5F4F88
:1026D0002D833E834F8358873FEFC31AD30AE30A03
:1026E000F30AB3CFF40140805180628073803324B9
:1026F000339496CFC414D504E604F70409F70FEF1A
:102700001FEF2FEF3FE0B701A601C4010E9469103F
:10271000811119C080E02C960FB6F894DEBF0FBE71
:10272000CDBFDF91CF911F910F91FF90EF90DF9080
:10273000CF90BF90AF909F908F907F906F905F9061
:102740004F903F900895D50116964D915D916D91F2
:102750007C911997411551056105710539F0970173
:102760008601C4010E9469108823A1F2D501169642
:10277000CD92DD92ED92FC921997332051F0D70162
:10278000C6010196A11DB11DF40180839183A2832E
:10279000B383F5018789908DA18DB28D892B8A2B0A
:1027A0008B2B39F48481C78AD08EE18EF28E8068BB
:1027B0008483F50184818062848381E0ACCF1F93A0
:1027C000CF93DF93FC012581222371F1162FEC01B9
:1027D000848187FF1EC0CF010E94270FFC01892B37
:1027E00019F18D81823040F48B899C89AD89BE8935
:1027F000848F958FA68FB78F8F89988D938F828FB7
:102800008F89988DA98DBA8DB58BA48B8C818F778C
:102810008C83111103C08C818F7E8C83812FDF917B
:10282000CF911F910C94B20E80E0DF91CF911F9158
:102830000895FF920F931F93CF93DF93EC018D8147
:10284000813041F090E080E0DF91CF911F910F91B6
:10285000FF9008958C8181FFF5CF82FD1DC000910E
:102860007C0510917D0560E0F80184810E94050AD5
:102870000E94390CF82EC8010E94210CFFEFFF12B4
:10288000E1CF8C8185FF1BC060E0CE010E94DF1389
:102890008C818F7D8C83D6CF4B895C896D897E89B5
:1028A0008A859B85AC85BD8584179507A607B707E4
:1028B000B1F2CE010E944B128111D1CFC3CF409112
:1028C0003E0550913F056091400570914105452BB3
:1028D000462B472B21F080E00E948E0EB3CF806103
:1028E0008C832A853B85317080E092E0821B930BBC
:1028F000ABCFCF93DF93EC0161E00E94DF1388231D
:1029000011F01D8281E0DF91CF9108952F923F92C7
:102910004F925F926F927F928F929F92AF92BF92EF
:10292000CF92DF92EF92FF920F931F93CF93DF939B
:1029300000D01F921F92CDB7DEB77C015B01342E11
:102940005D83DC0115968C911597813009F0CEC01E
:1029500014962C9021FECAC022FCB4C0C32CDD808A
:1029600022947FE027222094B22DB1702B2ED70124
:102970001A964D915D916D917C911D97C114D10472
:1029800009F428C15B968D919C915C97FC01748041
:102990007A948A019B0169E03695279517950795EA
:1029A0006A95D1F770228A011170711020C001154B
:1029B0001105E9F416964D915D916D917C911997F1
:1029C000411551056105710509F099C057968D9122
:1029D0009D910D90BC91A02D0097A105B10509F026
:1029E000B0C0C7010E94DF12882309F47FC080E0D5
:1029F00092E0801B910B46018C159D0508F44C015B
:102A0000D7015B964D915C915C9716968D919D9147
:102A10000D90BC91A02D0297A109B109FA0125855D
:102A200004C0880F991FAA1FBB1F2A95D2F746859D
:102A3000578560897189840F951FA61FB71F9C0158
:102A4000AD01270D311D411D511D29013A01811490
:102A500032E0930609F07BC0809100029091010260
:102A6000A0910202B091030284159505A605B70551
:102A700059F48FEF9FEFDC018093000290930102E5
:102A8000A0930202B0930302022D9501B301A201AB
:102A900080917C0590917D050E94200E882331F164
:102AA0009EEFB91AC818D908F70182859385A485C5
:102AB000B585880D991DA11DB11D82879387A487B7
:102AC000B58755CFF7014389548965897689828511
:102AD0009385A485B585481759076A077B0709F4CC
:102AE0003DCFC7010E944B12811138CF81E090E0A9
:102AF000D70113969C938E93129780E007C09E0196
:102B00002F5F3F4F0E940B11811102C090E079C0EE
:102B100089819A81AB81BC81F701238D348DF901C4
:102B2000278948EF5FEF60E070E0203121F048EF47
:102B30005FEF6FEF7FE084179507A607B70708F0F0
:102B400050CFF70186839783A087B18750CF0115B7
:102B5000110599F5D7011A964D915D916D917C9172
:102B60001D9753968D919D910D90BC91A02D481766
:102B700059076A077B0708F181E00E94B20E88239B
:102B800009F4B4CF40920002509201026092020216
:102B90007092030280913D05816080933D05C801DC
:102BA00081589A4FD5019C01280D391DFC012E1723
:102BB0003F0759F04D914193FACF41E0C301B20173
:102BC0000E94DD0E8111EBCF91CF281B390BA20E95
:102BD000B31E68CFF70183899489A589B6898417C4
:102BE0009507A607B70738F48481438B548B658B10
:102BF000768B80688483F701848183FD1AC0832DDE
:102C00009D810F900F900F900F900F90DF91CF91BB
:102C10001F910F91FF90EF90DF90CF90BF90AF90FA
:102C20009F908F907F906F905F904F903F902F90EC
:102C3000089561E0C7010E94DF13882309F456CF8D
:102C4000DECFCF93DF931F92CDB7DEB7698341E02C
:102C500050E0BE016F5F7F4F0E9486140F90DF919E
:102C6000CF910895FC01DB0112968D919C911397F1
:102C7000938382838AE892E09183808314968C9177
:102C80001497848315968C911597858316964D918C
:102C90005D916D917C911997468357836087718709
:102CA0001A964D915D916D917C911D974287538746
:102CB000648775871E964D915D916D917C915197BA
:102CC00046875787608B718B52968C915297828B77
:102CD00053964D915D916D917C915697438B548B9A
:102CE000658B768B57964D915D916D917C915A973E
:102CF000478B508F618F728F5B968D919C91948FD3
:102D0000838F0895DC015996ED91FC91309721F065
:102D100081E09581911101C080E00895FC01818DD1
:102D2000928D009719F061E00C94DF130895DC0197
:102D30005996ED91FC913097B9F083899489A589D2
:102D4000B6894285538564857585841B950BA60BD2
:102D5000B70B811520E89207A105B10538F08FEF78
:102D60009FE7A0E0B0E0089590E080E00895DC01E6
:102D700059968D919C91009739F0DC01ED91FC9171
:102D80000480F581E02D199490E080E00895CF93C0
:102D9000DF93EC01E98DFA8D309749F481E090E002
:102DA0009B838A8390E080E0DF91CF910895138226
:102DB0001282898D9A8D0E948614E98DFA8D228166
:102DC0003381232B59F7F0CFCF93DF931F92CDB7E9
:102DD000DEB76983DC01ED91FC910280F381E02D87
:102DE00041E050E0BE016F5F7F4F19950F90DF917A
:102DF000CF9108952F923F924F925F926F927F9260
:102E00008F929F92AF92BF92CF92DF92EF92FF92FA
:102E10000F931F93CF93DF9300D0CDB7DEB7FC01A4
:102E20008581811118C08FEF9FEF0F900F900F9049
:102E3000DF91CF911F910F91FF90EF90DF90CF9096
:102E4000BF90AF909F908F907F906F905F904F90CA
:102E50003F902F900895848180FFE5CF4389548966
:102E60006589768982859385A485B585312C212C49
:102E7000481759076A077B0719F022242394312C3D
:102E80006F012101CE0101963C01DF011696BB8343
:102E9000AA834114510409F4C5C0F6014285538543
:102EA000648575854A01F1E09F22D6015B968D917C
:102EB0009C915C978A019B01E9E0369527951795CF
:102EC0000795EA95D1F71596EC91E230E9F5FC010A
:102ED000628D738D848D958D600F711F821F931F7E
:102EE000A12C22E0B22EA818B9084A145B0408F4F9
:102EF0005201F601248126FD04C0A114F2E0BF06B0
:102F000071F40091000210910102209102023091AF
:102F10000302061717072807390709F05EC040E0CB
:102F20000E94DD0E882309F47ECFC40181589A4F98
:102F3000D3019C012A0D3B1DFC012E173F0709F40C
:102F40006CC041914D93F9CFDC011496BC90BA94BA
:102F5000B0228114910479F4B1100DC0452B462B99
:102F6000472B69F5F6018789908DA18DB28D8683F7
:102F70009783A087B187D6015B96ED91FC915C9712
:102F800016966D917D918D919C9119976250710962
:102F900081099109258504C0660F771F881F991F35
:102FA0002A95D2F70685178520893189600F711F10
:102FB000821F931F6B0D711D811D911D91CFD60135
:102FC00016964D915D916D917C9119972A813B8167
:102FD0000E940B118111CFCF26CF7301850194017F
:102FE000AB01BC0180917C0590917D050E94970DFD
:102FF000882309F418CF6A0C7B1CF601828593851F
:10300000A485B5858A0D9B1DA11DB11D828793875F
:10301000A487B5874A185B083CCF281B390B620E82
:10302000731EEBCF2A94232809F0FDCE898190E00E
:10303000FCCEFC01818D928D009711F00C94FA1654
:103040008FEF9FEF08950F931F93CF93DF93EC01C2
:10305000898D9A8D10E000E0009799F00E94FA1691
:103060008C010F3F100769F0898D9A8DFC01428514
:1030700053856485758541505109610971090E9424
:103080004B12C801DF91CF911F910F9108950F93BB
:103090001F93CF93DF93EC0188810E94DC09182FE6
:1030A0008A810E94DC09880F991F812B9E819817C5
:1030B00009F44DC0EE810F81188529853A8594E089
:1030C000E902F0011124482F082E000C550BE42BC7
:1030D000F52BEC5DFD4F9081492F990F550B660B39
:1030E000770B400F511F621F731F4F8358876987EB
:1030F0007A878E832C813D812230310531F1233056
:10310000310551F12130310511F5833001F58F8101
:103110009885A985BA8532E0B595A7959795879545
:103120003A95D1F78B879C87AD87BE878B899C8921
:10313000AD89BE898F8B988FA98FBA8F0E94C70ADD
:103140006B8B7C8B8D8B9E8B02C0882301F3DF9170
:10315000CF911F910F910895882311F08330B9F713
:103160008F819885A985BA85B595A79597958795F7
:10317000D9CF80917105909172050C944718FC018C
:10318000478550896189728983859485A585B6852F
:1031900084179507A607B7075CF483859485A585F2
:1031A000B6858787908BA18BB28B8FEF9FEF0895A9
:1031B000478550896189728983859485A585B685FF
:1031C000481759076A077B075CF483859485A585B2
:1031D000B6858787908BA18BB28B81E090E00895B4
:1031E00083859485A585B6858787908BA18BB28BC7
:1031F00090E080E008950F931F93CF93DF93EC014D
:103200008B01FE0184913196649122968F3799F457
:1032100070E090E080E00E94940A60E070E06E5FF1
:103220007F4F061B170B101611065CF3DF91CF9131
:103230001F910F9108958B988A9890910201977829
:1032400090930201A5989EB1977C9EB9409102018E
:1032500090E09C0155E0220F331F5A95E1F720764C
:10326000242B209302014EB19C01220F331F220F09
:10327000331F2073242B2EB944B39C01220F331F1C
:103280002072242B24BB4EB19C0135952795359592
:1032900027952870242B2EB920910201A3E0959543
:1032A0008795AA95E1F78871822B8093020189980E
:1032B000899A50E040E0461708F045C0FE01E40F4F
:1032C000F51FE4918A9A8091020187788093020128
:1032D000A5988EB1877C8EB9709102018E2F90E0F7
:1032E0009C01E5E0220F331FEA95E1F72076272BBA
:1032F000209302017EB19C01220F331F220F331F46
:103300002073272B2EB974B39C01220F331F207218
:10331000272B24BB7EB19C013595279535952795A4
:103320002870272B2EB9E091020123E0959587950F
:103330002A95E1F788718E2B809302018998899AEA
:103340004F5F5F4FB8CFC60FD11D8B9A67CF8B9859
:103350008A9820910201277820930201A5982EB126
:10336000277C2EB970910201292F30E0F901A5E0E8
:10337000EE0FFF1FAA95E1F7E076E72BE09302013D
:103380007EB1F901EE0FFF1FEE0FFF1FE073E72B79
:10339000EEB974B3F901EE0FFF1FE072E72BE4BB47
:1033A0007EB1F901F595E795F595E795E870E72B7E
:1033B000EEB970910201E3E035952795EA95E1F7C2
:1033C0002871272B209302018998899A2091020164
:1033D000277820930201A5982EB1277C2EB97091F1
:1033E00002019C01F5E0880F991FFA95E1F78076BC
:1033F000872B809302017EB1C901880F991F880F26
:10340000991F8073872B8EB974B3C901880F991FD8
:103410008072872B84BB7EB1C90195958795959560
:1034200087958870872B8EB980910201F3E03595DE
:103430002795FA95E1F72871282B209302018998A6
:10344000899A8A9AFA01615008F43EC0819190915C
:103450000201977890930201A5989EB1977C9EB93E
:103460004091020190E09C0155E0220F331F5A95D4
:10347000E1F72076242B209302014EB19C01220F0C
:10348000331F220F331F2073242B2EB944B39C010A
:10349000220F331F2072242B24BB4EB19C01359583
:1034A0002795359527952870242B2EB92091020158
:1034B00033E0959587953A95E1F78871822B809353
:1034C00002018998899ABFCF8B9A08958B988A9820
:1034D000E2E0F1E0208127782083A5982EB1277CB7
:1034E0002EB9A081292F30E0A901B5E0440F551F66
:1034F000BA95E1F740764A2B4083AEB1A901440F5B
:10350000551F440F551F40734A2B4EB9A4B3A90150
:10351000440F551F40724A2B44BBAEB1A9015595CB
:1035200047955595479548704A2B4EB9408153E0D1
:10353000359527955A95E1F72871242B2083899892
:10354000899A208127782083A5982EB1277C2EB9CF
:1035500040819C01A5E0880F991FAA95E1F780762C
:10356000842B80834EB1C901880F991F880F991F42
:103570008073842B8EB944B3C901880F991F807260
:10358000842B84BB4EB1C9019595879595958795F8
:103590008870842B8EB98081B3E035952795BA95D4
:1035A000E1F72871282B20838998899A8A9A80814B
:1035B00087788083A5988EB1877C8EB94081872FCC
:1035C00090E09C0155E0220F331F5A95E1F72076D9
:1035D000242B20834EB19C01220F331F220F331F57
:1035E0002073242B2EB944B39C01220F331F207269
:1035F000242B24BB4EB19C013595279535952795F5
:103600002870242B2EB92081A3E095958795AA9543
:10361000E1F78871822B80838998899A80818778E5
:103620008083A5988EB1877C8EB94081CB019B01A8
:10363000B5E0220F331FBA95E1F72076242B2083C3
:103640004EB19B01220F331F220F331F2073242BF7
:103650002EB944B39B01220F331F2072242B24BBAD
:103660004EB19C0135952795359527952870242BCB
:103670002EB92081A3E095958795AA95E1F78871E9
:10368000822B80838998899A8B9A089581E0809310
:103690007E05E1E0F1E08081886780839D9A8DB1AD
:1036A00088638DB9809A819A829A839A849A8B9A38
:1036B000889A899A8C9A62E370E080E090E00E9498
:1036C000940A8C9864E670E080E090E00E94940A8E
:1036D0008C9A64E670E080E090E00E94940A70E0CA
:1036E00060E080EB90E00C94661AEF92FF920F93EB
:1036F0001F93CF93DF93EC01E62E80917E0581111D
:1037000002C00E94461B8B988A988091020187789C
:1037100080930201A5988EB1877C8EB980910201B9
:10372000809302018EB18EB984B384BB8EB18EB901
:1037300080910201809302018998899A8091020107
:10374000877880930201A5988EB1877C8EB92091ED
:103750000201CE0115E0880F991F1A95E1F78076D6
:10376000822B809302012EB1CE01880F991F880F02
:10377000991F8073822B8EB924B3CE01880F991FB5
:103780008072822B84BB2EB1CE019595879595953D
:1037900087958870822B8EB98091020153E0D59570
:1037A000C7955A95E1F7C871C82BC0930201899853
:1037B000899A8A9A809101018778809301019D9866
:1037C0008DB1877C8DB961E070E080E090E00E946F
:1037D000940A61E070E080E090E00E94940A889A88
:1037E000889888988898D09100011CB102B3CCB118
:1037F000F0900001889A61E070E080E090E00E9423
:10380000940A889A889888988898409100015CB1B9
:10381000E2B39CB1F0910001889AEA946FEFE6124E
:10382000D8CF889A8B9A8091010188678093010193
:103830009D9A8DB188638DB984E0C89F9001112451
:103840002072332788E0F89EB0011124607C77272E
:10385000262B602F70E07595679560717727262B72
:10386000612F70E075956795759567956C707727F2
:10387000262B6D2F70E0B5E075956795BA95E1F749
:1038800063707727262B64E0969FC0011124807215
:1038900098E0F99FB0011124607C862BE695E071D9
:1038A0008E2B569556955C70852B50E0C5E055954E
:1038B0004795CA95E1F74370842B922FDF91CF9102
:1038C0001F910F91FF90EF9008950F931F93CF9347
:1038D000DF938C0160E00E94751BEC0161E0C80180
:1038E0000E94751B8C01BE0190E080E0CB01772720
:1038F000662730E020E0602B712B822B932BDF9129
:10390000CF911F910F910895FF920F931F93CF9323
:10391000DF938C0160E00E94751BEC0161E0C8013F
:103920000E94751BF82E62E0C8010E94751BAE0153
:1039300070E060E0742F66275527442700E030E0F0
:1039400020E0402B5F29622B732B292F30E0C90127
:10395000B0E0A0E08A019B01082B192B2A2B3B2BFE
:10396000C901B801DF91CF911F910F91FF90089588
:103970000F931F93CF93DF93EC018B01FE01859191
:103980009491FE0132962496659174918F3F980729
:1039900071F490E080E00E94940A0450110910161E
:1039A000110664F3DF91CF911F910F9108950E944A
:1039B000661AF3CFFC01262F358D868D8295817096
:1039C000982F9627692F70E072A361A330FF0CC077
:1039D000821307C080E290E050E040E060E00C9489
:1039E000A71981E290E0F8CF878D90A1833927E76E
:1039F000920741F058F4843521E0920791F080322B
:103A00009445C1F4626081E094E012C0863223E9FB
:103A10009207C1F3893025EB9207A1F385329249D1
:103A200049F4660F771F660F771F636187E090E0A8
:103A30000C94661A81E690E0FBCF8F929F92AF9232
:103A4000BF92CF92DF92EF92FF920F931F93CF938B
:103A5000DF9300D01F92CDB7DEB77C014B015A0136
:103A60006901FC01878D90A18632954151F4F701DF
:103A7000868980FF06C0C801841B950B81F50F5F06
:103A80001F4FF701858D80FF31C085A599828A82FD
:103A9000DB82CC82AE014F5F5F4F64E090E00E941A
:103AA000A719F70181A9B982AA821B830C83AE01F1
:103AB0004F5F5F4F64E090E00E94A7190F900F9056
:103AC0000F900F90DF91CF911F910F91FF90EF908A
:103AD000DF90CF90BF90AF909F908F900895261762
:103AE000370779F6C80ED91E8A01CBCFB40187A15A
:103AF00090A50E94661AB501F70181A592A50E94C2
:103B0000661AC814D90419F40A151B05B9F2F7018D
:103B1000858D85FF08C0868980FF1EC0102F002775
:103B2000A02AB12A8501B401F70185A596A50E94B6
:103B3000661AB501F70181A992A90E94661AB60119
:103B4000F70187A590A90E94661AB801F70183A919
:103B500094A90E94661AB2CFDC2CCC248C289D2814
:103B60006401E1CF2F923F924F925F926F927F92CA
:103B70008F929F92AF92BF92CF92DF92EF92FF927D
:103B80000F931F93CF93DF9300D01F921F92CDB757
:103B9000DEB79D838C8380914305882349F0C7015C
:103BA000880F991F8E739927E1ECEE22E82AF92AF3
:103BB00037FF05C0620F731F319521953109260F1C
:103BC000371F77FF02C070E060E0EC81FD818085E7
:103BD0009185281739070CF4C9016C01C61AD70A58
:103BE00017FF05C0400F511F119501951109040FD2
:103BF000151F57FF02C050E040E0EC81FD81228597
:103C00003385021713070CF498015901A41AB50A59
:103C10008901015011099C01215031098C819D813C
:103C20000E941D1D8B988A98EC81FD8153A544A5A7
:103C300080910201877880930201A5988EB1877CDC
:103C40008EB960910201842F90E09C01A5E0220FC3
:103C5000331FAA95E1F72076262B209302016EB13F
:103C60009C01220F331F220F331F2073262B2EB9E6
:103C700064B39C01220F331F2072262B24BB6EB12C
:103C80009C0135952795359527952870262B2EB9BB
:103C90002091020133E0959587953A95E1F7887177
:103CA000822B809302018998899A809102018778FA
:103CB00080930201A5988EB1877C8EB96091020134
:103CC000852F942F9C0145E0220F331F4A95E1F781
:103CD0002076262B209302014EB19C01220F331F28
:103CE000220F331F2073242B2EB944B39C01220FC3
:103CF000331F2072242B24BB4EB19C013595279590
:103D0000359527952870242B2EB920910201E3E0E8
:103D100095958795EA95E1F78871822B809302014A
:103D20008998899A8A9ACA14DB042CF09A2D8B2DD3
:103D30005601C92ED82E2F2D30E0890185E0000FC5
:103D4000111F8A95E1F70076C901880F991F880F26
:103D5000991F182F1073C901880F991FB82FB072BF
:103D6000C9019595879595958795982F987073E0DB
:103D7000359527957A95E1F7822F8871A701E5E0BF
:103D8000440F551FEA95E1F740769701220F331F44
:103D9000220F331F522F5073B701660F771F6072C7
:103DA00097013595279535952795722F787097014E
:103DB000E3E035952795EA95E1F7A22FA8712F2D1D
:103DC000287F30E04901880C991C880C991CF82D3B
:103DD000F073F9834901880C991CE82DE072EA839D
:103DE00049019594879495948794F82DF870FB83F6
:103DF000E3E035952795EA95E1F7E22FE8712E2E5D
:103E00009701F3E036952795FA95E1F72C7F30E09E
:103E10004901880C991C880C991CF82DF0733F2ED1
:103E20002901440C551CE42DE0724E2E4901959455
:103E3000879495948794F82DF8705F2EF3E035956C
:103E40002795FA95E1F7E22FE8716E2EEE0CEE0C55
:103E5000EE0CF12C9701220F331F220F331FF22F8C
:103E6000F0737F2E9701220F331F2072F701F59513
:103E7000E795F595E795E870F3E0F594E794FA9502
:103E8000E1F73E2D3871E32E1C141D040CF0ABC07D
:103E9000309144054501332309F463C03091020198
:103EA000377830930201A5983EB1377C3EB9309106
:103EB0000201309302013EB1F9813F2B3EB934B388
:103EC000FA813F2B34BB3EB1FB813F2B3EB9309191
:103ED00002013229309302018998899A30910201B6
:103EE000377830930201A5983EB1377C3EB93091C6
:103EF0000201309302013EB133293EB934B3342973
:103F000034BB3EB135293EB9309102013629309398
:103F100002018998899A3091020137783093020121
:103F2000A5983EB1377C3EB9309102013093020131
:103F30003EB137293EB934B3322B34BB3EB13E2BB0
:103F40003EB9309102013E29309302018998899A45
:103F500031E0831A910809F0A1CFF1E0CF1AD1081E
:103F600093CF30910201377830930201A5983EB18A
:103F7000377C3EB930910201302B309302013EB1C3
:103F8000312B3EB934B33B2B34BB3EB1392B3EB958
:103F900030910201382B309302018998899A30912F
:103FA0000201377830930201A5983EB1377C3EB9C3
:103FB00030910201342B309302013EB1352B3EB9D2
:103FC00034B3362B34BB3EB1372B3EB930910201AE
:103FD0003A2B309302018998899AF1E08F1A91085F
:103FE00009F0BFCFBACF8B9AEC81FD81858D80FF20
:103FF0000AC0878D90A186329541B1F4EC81FD8194
:10400000868980FF11C0EC81FD81028513850150F6
:104010001109208531852150310950E040E070E0E0
:1040200060E0CF010E941D1D0F900F900F900F9028
:104030000F90DF91CF911F910F91FF90EF90DF9044
:10404000CF90BF90AF909F908F907F906F905F9038
:104050004F903F902F900895EF92FF920F931F93F0
:10406000CF93DF937C01E90177FD4DC157FD4BC133
:10407000FC0180859185681779070CF044C1828521
:104080009385481759070CF03EC18091430588235A
:1040900041F0C901880F991F8E739927C17CC82BE5
:1040A000D92B8A019B01C7010E941D1D80914405E7
:1040B000882309F42FC18B988A98F70143A554A54A
:1040C00080910201877880930201A5988EB1877C48
:1040D0008EB960910201852F90E09C0175E0220F5E
:1040E000331F7A95E1F72076262B209302016EB1DB
:1040F0009C01220F331F220F331F2073262B2EB952
:1041000064B39C01220F331F2072262B24BB6EB197
:104110009C0135952795359527952870262B2EB926
:1041200020910201B3E095958795BA95E1F78871E2
:10413000822B809302018998899A80910201877865
:1041400080930201A5988EB1877C8EB9609102019F
:10415000CA019C0115E0220F331F1A95E1F7207662
:10416000262B209302014EB19C01220F331F220FF8
:10417000331F2073242B2EB944B39C01220F331F0D
:104180002072242B24BB4EB19C0135952795359583
:1041900027952870242B2EB92091020173E0959564
:1041A00087957A95E1F78871822B8093020189982F
:1041B000899A8A9A80910201877880930201A59852
:1041C0008EB1877C8EB9209102018D2F887F90E07F
:1041D000209302014EB19C01220F331F220F331F87
:1041E0002073242B2EB944B39C01220F331F20725D
:1041F000242B24BB4EB19C013595279535952795E9
:104200002870242B2EB920910201B3E09595879553
:10421000BA95E1F78871822B809302018998899A77
:1042200080910201877880930201A5988EB1877CE6
:104230008EB920910201CE01D3E096958795DA954B
:10424000E1F78C7F90E0209302014EB19C01220F98
:10425000331F220F331F2073242B2EB944B39C012C
:10426000220F331F2072242B24BB4EB19C013595A5
:104270002795359527952870242B2EB9209102017A
:1042800063E0959587956A95E1F78871822B809315
:1042900002018998899A80910201877880930201AE
:1042A000A5988EB1877C8EB980910201CC0FCC0F7E
:1042B000CC0FD0E0809302012EB1CE01880F991F60
:1042C000880F991F8073822B8EB924B3CE01880F7B
:1042D000991F8072822B84BB2EB1CE019595879554
:1042E000959587958870822B8EB980910201A3E005
:1042F000D595C795AA95E1F7C871C82BC09302015F
:104300008998899A8B9ADF91CF911F910F91FF9095
:10431000EF900895BE01F70183A594A5DF91CF9199
:104320001F910F91FF90EF900C94661AEF92FF92FD
:104330000F931F93CF93DF9300D000D000D01F9234
:10434000CDB7DEB77C01862F8370F701868B962F61
:10435000917060FFE3C026813781F70131872087A4
:10436000992309F4DEC024813581F7013387228740
:10437000823009F4DBC0833009F4DAC0813009F4FB
:10438000D3C088E48A87F701858D968D90FF03C09E
:104390002A8520582A8791FF04C02A8530E42327E4
:1043A0002A8793FF04C02A8538E023272A87F7014C
:1043B000278D30A180FF00C12431F8E63F0709F0C6
:1043C000B9C09A85892F88728A871F82892F85951F
:1043D0008074282F2260892F90E0959587958072B0
:1043E0009927822B88878BE38987AE01495F5F4FCE
:1043F00063E086EB90E00E94A7192AE230E0F70123
:1044000030A727A38BE290E092A781A74CE250E06F
:1044100054A743A736A725A730AB27A792AB81ABFC
:1044200094AB83ABAE01465F5F4F61E086E390E003
:104430000E94A7198A8590E0F70194A383A3F7014E
:10444000868980FF1CC0858D968D92FD18C087A13E
:1044500090A521A532A530A727A392A781A785A55E
:1044600096A521A932A936A725A792AB81AB87A52E
:1044700090A923A934A930AB27A794AB83ABF7014C
:10448000028513850150110920853185215031099C
:1044900050E040E070E060E0C7010E941D1DF701A0
:1044A00066817781878D90A120E08732F3E99F07AD
:1044B00009F420E2F701358D30FF39C119821A82E3
:1044C0007B836C831D822E83AE014F5F5F4F66E05E
:1044D00083E390E00E94A71919821A82AE014F5F10
:1044E0005F4F62E087E390E00E94A719F701858D96
:1044F00080FF07C050E040E060E083E190E00E9470
:10450000A7192A960FB6F894DEBF0FBECDBFDF9174
:10451000CF911F910F91FF90EF90089524813581E5
:104520001CCF2681378121CF88E22CCF88E92ACF82
:1045300088EF28CF273243E9340789F41F8281E3CB
:1045400088878A85859585958595859588708987DD
:10455000AE01495F5F4F63E080EC90E04CCF2336C3
:1045600089E1380749F02138E4E93E0729F0213193
:10457000F5E13F0709F041CF8A8587FF02C08160DE
:104580008A878A8586FF02C082608A878A858F73C0
:10459000233649E1340731F0213884E9380721F422
:1045A0008A858F728A8729CF2131354109F025CF3D
:1045B0008A858F7E806CF6CF6A85862F062E000C4A
:1045C000990B2339F7E73F0751F0A8F52435E1E0CF
:1045D0003E0709F45CC02032F4E53F07A1F540E056
:1045E00052E0F70150A747A341E052E052A741A78C
:1045F00042E052E054A743A740E152E056A745A746
:1046000041E152E050AB47A742E152E052AB41AB2F
:1046100043E152E054AB43AB882790782632F3E96C
:104620003F0721F02032344509F071C067FD8460F6
:1046300060E071E36EC0263243E9340781F229302D
:10464000E5EB3E0761F220E230E0F70130A727A357
:1046500021E230E032A721A722E230E034A723A7ED
:1046600020E530E036A725A721E530E030AB27A7CD
:1046700022E530E032AB21AB23E530E034AB23ABB5
:10468000BC0166277078776280E690E046C027E339
:1046900030E0F70136A725A726E330E030AB27A7A7
:1046A00029E330E032AB21AB28E330E034AB23AB7D
:1046B00020E230E030A727A321E230E032A721A793
:1046C00022E230E034A723A7F4E06F9FB001112469
:1046D00066277170882792708862682B792B81E039
:1046E00090E00E94661A8A85682F70E0759567953C
:1046F000759567956870772783FD70616063F70132
:1047000074A363A383E090E00E94661A98CE60E0F1
:1047100072E6682B792B80E094E00E94661A6A8525
:10472000F4E06F9FB001112466277170D8CF8339F0
:10473000F7E79F07D9F1F0F4803244E59407B1F12F
:104740008338E7E79E0731F184359140F1F46150F9
:10475000710981E390E00E94661A70E060E082E3F4
:1047600090E00E94661A70E060E083E390E00E94AF
:10477000661AC7CE863223E99207C1F0893045EB2D
:104780009407A1F08532924911F3F70161A172A15A
:10479000626003C0F70161A172A181E690E00E940E
:1047A000661A70E060E08AE690E0E1CFF70161A16F
:1047B00072A1626081E094E00E94661A70E060E09D
:1047C00084E094E0D4CFEF92FF920F931F93DC012B
:1047D000ED91FC9100A0F1A1E02D780101E010E045
:1047E00019951F910F91FF90EF900895EF92FF920E
:1047F0000F931F93DC01ED91FC9100A0F1A1E02D3E
:104800007801890121E030E019951F910F91FF9007
:10481000EF9008952091F304260F3327331F2132A0
:104820003105ECF420911705FC0190E080E0243084
:1048300069F082E00895A091F3042191AC014D52FA
:104840005B4FA40FB52FB11D2C930196861798F3DB
:104850008091F304680F6093F30480E0089581E091
:1048600008958FEF9FEF08958FEF9FEF0895809148
:10487000CC0490E09195819591090895CF93DF93B1
:10488000CB01EA01642F0E940A24CE01DF91CF916F
:104890000895CF93DF931F92CDB7DEB7698361E0B0
:1048A000CE0101960E940A2481E090E00F90DF91F2
:1048B000CF9108950895FC016370668B8481958182
:1048C00026813781613039F0633029F09187808704
:1048D00033872287089531872087938782870895B9
:1048E0002F923F924F925F926F927F928F929F9200
:1048F000AF92BF92CF92DF92EF92FF920F931F93EE
:10490000CF93DF93CDB7DEB76A970FB6F894DEBFCB
:104910000FBECDBF9A8F898F7A8369834A01D22EC9
:1049200018870F833701BC2CDC0159962D913C91DF
:104930005A972115310509F015C118968D919C9152
:104940001997681779070CF0D7C11A968D919C9129
:10495000481759070CF0D0C14C2C512CB6E0CB9E17
:10496000600D711D11247C876B87161617060CF0DD
:10497000C3C1EA2DF0E0FA87E98793E0EE0FFF1F4D
:104980009A95E1F7F88BEF87CF01840F951F1816E2
:1049900019060CF0B1C1A98DBA8D58968C91811170
:1049A00004C0BFEABD1508F4D394A98DBA8DED916A
:1049B000FC9111970284F385E02DCD011995B5E0A6
:1049C000DB9EC0011124E981FA81FC83EB83312C49
:1049D000212C9C01245D3D4F388F2F8B4A2D50E0B8
:1049E0005E8B4D8BEF89F88DE20DF31D44919E8215
:1049F0008D82D12CC12C69817A81620D731D7A8BD5
:104A0000698B842F90E09C8B8B8BE98DFA8DA08134
:104A1000B18140FF82C0F1E0BF126FC0AF126DC024
:104A20001C96ED91FC912F813885A4014C0D5D1DE4
:104A300069897A89898D9A8D1995EB89FC89F59513
:104A4000E7954E2F5FEFC51AD50A6D817E818D895E
:104A50009E89680F791F7E836D8398E0C916D10403
:104A600081F6AFEF2A1A3A0AEB81FC81E40DF51DBD
:104A7000FC83EB83F5E02F16310409F0B3CF2F81CF
:104A8000388526153705B9F0A98DBA8DED91FC91C1
:104A9000B1E0BB1257C0AB1255C069817A816B5F20
:104AA0007F4F0088F189E02D830128E030E0A401E8
:104AB000898D9A8D1995A98DBA8DED91FC911197DB
:104AC0000688F789E02DCD016A960FB6F894DEBF0F
:104AD0000FBECDBFDF91CF911F910F91FF90EF904F
:104AE000DF90CF90BF90AF909F908F907F906F900E
:104AF0005F904F903F902F9019941E96ED91FC91EE
:104B0000EF80F88409851A8592014D815E816B8161
:104B10007C81898D9A8D199590CF2F8138852615A6
:104B2000370509F48ACF31E0B31207C0A31205C0DC
:104B30001C96ED91FC91930178CF1E96ED91FC911E
:104B40007301E0CF6B857C85641975090684F78550
:104B5000E02D73010F8518899201A401898D9A8D2A
:104B60001995A9CFF90134969491329745915491B2
:104B7000D91AB7E0DB9E400D511D1124F901259192
:104B800034913C8B2B8BFA0125903490FA013296AC
:104B9000749031963491398B32966490319644906A
:104BA00041E04C1518F04A1508F07FC0662D062C20
:104BB000000C770B7C836B83842D042C000C990BE9
:104BC0009E838D83A98DBA8DED91FC9111970284FE
:104BD000F385E02DCD011995512CD12CC12CEA2D56
:104BE000F0E0FA87E9872B2D30E03C872B87A40182
:104BF000440D511D47FC5A95588F4F8B69817A811E
:104C0000660D711D67FC7A957E876D877989C71659
:104C100008F051CF2C2D30E04D815E81420F531FA3
:104C2000A985BA854A9FC0014B9F900D5A9F900D50
:104C30001124FC01E80DF91DF88BEF87852D612CFF
:104C40004F89588D420F531F5E8B4D8B671408F0B0
:104C500050C044244394480E877041F4C10101962A
:104C6000EB89FC89E20DF31DD4901C01D7FE19C01D
:104C7000A98DBA8DED91FC91662D70E0B1E0BB126B
:104C800019C0AB1217C02D853E85620F731F0484B7
:104C9000F585E02D2F8138854D895E89898D9A8D26
:104CA0001995DD0C6394842DD1CF1E821D821C8248
:104CB0001B8288CF4B815C81640F751FAB85BC85DF
:104CC0006A9FC0016B9F900D7A9F900D112469819E
:104CD0007A81680F791F0684F785E02DEF80F884CC
:104CE00009851A859D014F855889898D9A8D199559
:104CF000D8CF570CC3948ACF6A960FB6F894DEBF0C
:104D00000FBECDBFDF91CF911F910F91FF90EF901C
:104D1000DF90CF90BF90AF909F908F907F906F90DB
:104D20005F904F903F902F9008958F929F92AF92F7
:104D3000CF92EF92FF920F931F93CF93DF93EC01EB
:104D4000262F898D9A8D009709F051C06A30D1F4D1
:104D50001D861C868D8948E0849F900111248E85D4
:104D60009F85820F931F9F878E8781E090E0DF9160
:104D7000CF911F910F91FF90EF90CF90AF909F90A8
:104D80008F9008956D3089F3CC88AD888F89882302
:104D9000C1F08C859D8536E0C39E800D911D112448
:104DA000488559854817590764F44E855F851D86E7
:104DB0001C8638E0A39EC0011124840F951F9F8795
:104DC0008E87EA88FB88088919894E855F856C85FE
:104DD0007D85CE010E9470242C898C859D8546E0BE
:104DE000249F800D911D11249D878C87BECF6A3032
:104DF00069F41D861C86FC013896E4912D898E8508
:104E00009F85E29F800D911D1124ADCF6D3009F477
:104E1000ACCFFC0134963491631708F4A6CF3296D8
:104E2000E491E61708F4A1CFFC01329685909490A6
:104E3000462F431B342F47E0349F800C911C1124D4
:104E4000F401329634913196E4913323A9F1EE23A3
:104E500099F1CC88F4013596E491AD884F894423CB
:104E600001F10E2E000CFF0BE30FF11DCE9EA001F1
:104E7000CF9E500D11246C857D85460F571F688588
:104E80007985641775076CF44E855F851D861C86D1
:104E9000FC013896E491AE9E400D511D11245F87B0
:104EA0004E87EA88FB88088919894E855F856C855D
:104EB0007D85CE010E947024F4013496E4912C8902
:104EC0008C859D85E29F800D911D11248DCF6F9261
:104ED0007F928F929F92AF92BF92CF92DF92EF928A
:104EE000FF920F931F93CF93DF93EC016B015A0155
:104EF00039014801E881F9810284F385E02D199593
:104F0000E881F9810288F389E02D87019301A501E9
:104F1000B601CE011995A501480D591D4150510901
:104F2000E881F9810288F389E02D9301B601CE0171
:104F30001995E881F9810088F189E02D9401A50196
:104F4000B601CE011995C60CD71CB6016150710986
:104F5000E881F9810088F189E02D9401A501CE0155
:104F60001995E881F9810688F789E02DCE01DF9156
:104F7000CF911F910F91FF90EF90DF90CF90BF9056
:104F8000AF909F908F907F906F9019946F927F92C7
:104F90008F929F92AF92BF92CF92DF92EF92FF9249
:104FA0000F931F93CF93DF935C01EB016A014901DB
:104FB00038018701DC01ED91FC916217730719F547
:104FC000641675062CF0962D872D3A01C92ED82E21
:104FD0009601261937092F5F3F4F048CF58DE02D80
:104FE000A301BE01C5011995DF91CF911F910F91CA
:104FF000FF90EF90DF90CF90BF90AF909F908F90F9
:105000007F906F9008954615570591F4261737073E
:1050100024F0892D4B01C22FD82F9E012819390960
:105020002F5F3F4F068CF78DE02DA601B401DACF3C
:105030000284F385E02D1995D501ED91FC9104884A
:10504000F589E02D83019401A601BE01C5011995E2
:10505000D501ED91FC910688F789E02DC501DF911E
:10506000CF911F910F91FF90EF90DF90CF90BF9065
:10507000AF909F908F907F906F901994EF92FF92D6
:105080000F931F93DC011A960D911C911B97189694
:105090002D913C911997ED91FC9100A0F1A1E02D8B
:1050A0007B0150E040E070E060E019951F910F91A6
:1050B000FF90EF9008954F925F926F927F928F9240
:1050C0009F92AF92BF92CF92DF92EF92FF920F9397
:1050D0001F93CF93DF936C012B015A0139014801D3
:1050E000DC01ED91FC910284F385E02D1995E2013C
:1050F000640C751CD601ED91FC91C615D7055CF4C6
:105100000088F189E02D87019401A501BE01C60147
:1051100019952196EFCF0688F789E02DC601DF911A
:10512000CF911F910F91FF90EF90DF90CF90BF90A4
:10513000AF909F908F907F906F905F904F90199459
:105140008F929F92AF92BF92CF92DF92EF92FF9297
:105150000F931F93CF93DF93EC015B014A01690129
:10516000E881F9810284F385E02D199595012C0DD4
:105170003D1D21503109E881F9810488F589E02D30
:1051800078018401A401B501CE011995E881F98166
:105190000688F789E02DCE01DF91CF911F910F9105
:1051A000FF90EF90DF90CF90BF90AF909F908F9047
:1051B00019948F929F92AF92BF92CF92DF92EF920B
:1051C000FF920F931F93CF93DF93EC015B014A0192
:1051D00069017801E881F9810284F385E02D199550
:1051E000C80CD91C860101501109E881F981048895
:1051F000F589E02D9501A401B501CE011995E8814D
:10520000F9810688F789E02DCE01DF91CF911F91BA
:105210000F91FF90EF90DF90CF90BF90AF909F9055
:105220008F901994EF92FF920F931F93DC01ED91F1
:10523000FC9100A0F1A1E02D19951F910F91FF9015
:10524000EF9008950F931F93DC01ED91FC91068C74
:10525000F78DE02D19951F910F9108952F923F9290
:105260004F925F926F927F928F929F92AF92BF9276
:10527000CF92DF92EF92FF920F931F93CF93DF9322
:10528000CDB7DEB7A8970FB6F894DEBF0FBECDBF7F
:1052900078A76FA34A0159011801DE86CD8626172B
:1052A00037070CF08EC1E616F7060CF4A1C16217A1
:1052B00073075CF03FA128A5B8A6AFA2A32EB22E1B
:1052C000382F292FC401832E922E2FA138A52E15F9
:1052D0003F05E1F58816990654F0382F292F8815D7
:1052E000990514F4382D292D4C01832F922F281461
:1052F00039042CF0821593050CF4C10114018219B4
:1053000093099C012F5F3F4F0D851E854FA158A526
:10531000B1018FEB98E00E942229A8960FB6F8946D
:10532000DEBF0FBECDBFDF91CF911F910F91FF90D8
:10533000EF90DF90CF90BF90AF909F908F907F9035
:105340006F905F904F903F902F900895322D232DB6
:105350001C01832F922F3E2D2F2DEFA0F8A43FA3E9
:1053600028A7940122193309A5014E195F09BC0130
:10537000621973097C8B6B8BAFA1B8A5AE19BF09FD
:10538000BE83AD83BC01681979097E8B6D8B8FA1BB
:1053900098A58A199B09988B8F87AFA1B8A5AA15E4
:1053A000BB0509F489C0B501615071097A87698725
:1053B0006701412C512C320119821A821B821C82F6
:1053C0006B897C89072E000C880B990B6F8B788F6B
:1053D000898F9A8FCA01550FAA0BBB0B8B8F9C8F9D
:1053E000AD8FBE8F4D815E81052E000C660B770B55
:1053F0004F8F58A369A37AA3B901330F880B990B78
:105400006BA37CA38DA39EA389859A858C159D058E
:105410000CF457C069817A818B819C812B8D3C8DE6
:105420004D8D5E8D0E94F15D8101020F131FC3013E
:10543000B2012F8D38A149A15AA10E94F15DB1019D
:10544000620F731F29813A814B815C818BA19CA1E2
:10545000ADA1BEA1280F391F4A1F5B1F29833A83C4
:105460004B835C832F89388D498D5A8D420E531E94
:10547000641E751E601771072CF0962F872FB801D8
:10548000092F182F9801261B370B2F5F3F4F0D85D3
:105490001E85A6018FEB98E00E9422293FEFC31AD8
:1054A000D30AB2CF382D292D4C01832F922F3FA143
:1054B00028A5B8A6AFA2A8C08FA198A59A8789876A
:1054C00077CF4D895E89052E000C660B770B4987D7
:1054D0005A876B877C8796012A193B09AD89BE895B
:1054E0000E94185E69837A838B839C8396012E19B0
:1054F0003F09AB89BC890E94185E2B013C016F8576
:105500007889072E000C880B990B6F87788B898B15
:105510009A8B8D819E81092E000CAA0BBB0B8D836B
:105520009E83AF83B887AFA1B8A5AC15BD050CF4B9
:10553000F4CE69817A818B819C812F853889498954
:105540005A890E94F15D7401E20EF31EC301B2019B
:105550002D813E814F8158850E94F15DB101620F1E
:10556000731F29813A814B815C8189859A85AB853E
:10557000BC85280F391F4A1F5B1F29833A834B8341
:105580005C832F89388D498D5A8D420E531E641EBF
:10559000751E6E157F052CF0962F872FB701E92E0B
:1055A000F82E9701261B370B2F5F3F4F0D851E8569
:1055B000A6018FEB98E00E9422293FEFC31AD30A7D
:1055C000B2CFE216F3060CF080CE4FA158A5E41638
:1055D000F5060CF467CF232D14014C01802F922F78
:1055E0003A2D2B2D5A01F8A6EFA2E32EF22E62CE11
:1055F000E216F3060CF4B5CE322D232D1401832EC2
:10560000922E3E2D2F2D7501A32EB22EAACE0F93D2
:105610001F93DC01ED91FC91048CF58DE02D199523
:105620001F910F910895DC01ED91FC910084F185AB
:10563000E02D19942F923F924F925F926F927F923A
:105640008F929F92AF92BF92CF92DF92EF92FF9292
:105650000F931F93CF93DF9300D000D0CDB7DEB769
:105660003C016A013E832D83FC82EB825801A41A1F
:10567000B50AB7FE03C0B194A194B1088D809E8095
:10568000861A970A97FE03C09194819491088A1410
:105690009B045CF0902F812F0D811E819D838E8352
:1056A0009C2D8D2D6B01692F782F0C151D055CF03D
:1056B0009D818E817E836D83692F782F902F812F1E
:1056C0008601C92ED82E1601201A310A2B012D81F0
:1056D0003E81421A530A57FE03C051944194510827
:1056E000710137FE03C03FEFE31AF30AF594E79424
:1056F0008D819E81861797075CF5A1E0B0E0BA83A3
:10570000A983C016D1064CF1D301ED91FC9104841C
:10571000F585E02D2B813C81A8016D817E818A1465
:105720009B041CF04D815E81B801C3011995E418FA
:10573000F508F7FE0AC02D813E8189819A81280FE4
:10574000391F3E832D83E20CF31C0F5F1F4FD9CF0F
:105750002FEF3FEF3A832983D4CF26960FB6F894E4
:10576000DEBF0FBECDBFDF91CF911F910F91FF9094
:10577000EF90DF90CF90BF90AF909F908F907F90F1
:105780006F905F904F903F902F900895089590E014
:1057900080E00895CF92DF92EF92FF920F931F93D4
:1057A000C0905705D090580580911502909116022F
:1057B0008C159D0531F480914F0590915005892BF2
:1057C00081F0E0904D05F0904E050DE210E022E3EF
:1057D00030E040EC50E064E170E08FEB98E00E9434
:1057E000B21DE0904905F0904A050DE210E022E379
:1057F00030E040EC50E064E170E08FEB98E0CD28C1
:1058000001F10E94672780916E05C0904905D090F4
:105810004A0581111FC086EDE82EF12C0EE310E041
:1058200025EE30E040E250E067EC70E080E290E08E
:105830000E942E291F910F91FF90EF90DF90CF9043
:1058400008950E94B21DC0904D05D0904E058091E4
:105850006E05DFCF76010EE110E028E030E047EC86
:1058600050E060E270E08FEB98E00E94B21D28E00B
:1058700030E047EC50E061E370E08FEB98E00E948D
:10588000B21DD8CF60E082E30E94050A60E083E3A6
:105890000E94050A60E084E30E94050A61E085E356
:1058A0000E94050A10926E058091170290911802CD
:1058B000069711F40C94CA2B0895EF92FF920F9360
:1058C0001F932091150230911602809157059091F7
:1058D00058052817390781F0E0904D05F0904E05E6
:1058E00008E110E02AE430E04BE150E06FE970E0BD
:1058F0008FEB98E00E946727E0904705F0904805FD
:1059000004E110E026E430E04DE150E061EA70E0AF
:105910008FEB98E00E94B21DE0904905F0904A0597
:1059200026E430E04DE150E061EA70E08FEB98E072
:105930000E9467278091570590915805019781F43F
:10594000E0904905F0904A0508E110E02AE430E0D3
:105950004BE150E06FE970E08FEB98E00E94672721
:105960001F910F91FF90EF900895EF92FF920F9388
:105970001F93209115023091160280915705909146
:1059800058052817390781F0E0904D05F0904E0535
:1059900008E110E02AE430E04BE150E060E570E01F
:1059A0008FEB98E00E946727E0904B05F0904C0544
:1059B00004E110E026E430E04DE150E062E570E003
:1059C0008FEB98E00E94B21DE0904905F0904A05E7
:1059D00026E430E04DE150E062E570E08FEB98E0C6
:1059E0000E9467278091570590915805892B81F473
:1059F000E0904905F0904A0508E110E02AE430E023
:105A00004BE150E060E570E08FEB98E00E94672783
:105A10001F910F91FF90EF900895CF92DF92EF9238
:105A2000FF920F931F93CF93DF93C0915705D091AF
:105A3000580580911502909116028C179D0781F0F0
:105A4000E0904D05F0904E050EE110E028E230E0C8
:105A50004DE051E062EB70E08FEB98E00E94B21DE8
:105A6000E0904905F0904A0580911402082E000C40
:105A7000990B02960EE110E028E230E04DE051E093
:105A800062EB70E0C817D90709F18FEB98E00E942C
:105A90006727C0904905D0904A058BE1E82EFF2486
:105AA000F39404ED10E026E231E049EB50E061E1CF
:105AB00071E089EB90E00E942E29DF91CF911F9138
:105AC0000F91FF90EF90DF90CF9008958FEB98E0CB
:105AD0000E94B21DC0904D05D0904E05DECFCF92F2
